{
  "abi": [
    {
      "inputs": [],
      "name": "AlreadyInBiddingPhase",
      "type": "error"
    },
    {
      "inputs": [],
      "name": "AlreadyInRentalPhase",
      "type": "error"
    },
    {
      "inputs": [],
      "name": "BeneficiaryCannotBid",
      "type": "error"
    },
    {
      "inputs": [],
      "name": "CurrentPhaseNotEnded",
      "type": "error"
    },
    {
      "inputs": [],
      "name": "DepositAlreadyClaimed",
      "type": "error"
    },
    {
      "inputs": [],
      "name": "FlowRateTooLow",
      "type": "error"
    },
    {
      "inputs": [],
      "name": "InvalidAgreement",
      "type": "error"
    },
    {
      "inputs": [],
      "name": "InvalidFlowRate",
      "type": "error"
    },
    {
      "inputs": [],
      "name": "InvalidToken",
      "type": "error"
    },
    {
      "inputs": [],
      "name": "IsNotPaused",
      "type": "error"
    },
    {
      "inputs": [],
      "name": "IsPaused",
      "type": "error"
    },
    {
      "inputs": [],
      "name": "NotBiddingPhase",
      "type": "error"
    },
    {
      "inputs": [],
      "name": "NotRentalPhase",
      "type": "error"
    },
    {
      "inputs": [],
      "name": "TooEarlyToReclaimDeposit",
      "type": "error"
    },
    {
      "inputs": [],
      "name": "Unauthorized",
      "type": "error"
    },
    {
      "inputs": [],
      "name": "Unknown",
      "type": "error"
    },
    {
      "anonymous": false,
      "inputs": [
        {
          "indexed": true,
          "internalType": "address",
          "name": "renter",
          "type": "address"
        },
        {
          "indexed": false,
          "internalType": "uint256",
          "name": "amount",
          "type": "uint256"
        }
      ],
      "name": "DepositClaimed",
      "type": "event"
    },
    {
      "anonymous": false,
      "inputs": [
        {
          "indexed": false,
          "internalType": "address",
          "name": "acceptedToken",
          "type": "address"
        },
        {
          "indexed": false,
          "internalType": "address",
          "name": "controllerObserver",
          "type": "address"
        },
        {
          "indexed": false,
          "internalType": "address",
          "name": "beneficiary",
          "type": "address"
        },
        {
          "indexed": false,
          "internalType": "uint96",
          "name": "minimumBidFactorWad",
          "type": "uint96"
        },
        {
          "indexed": false,
          "internalType": "int96",
          "name": "reserveRate",
          "type": "int96"
        },
        {
          "indexed": false,
          "internalType": "uint64",
          "name": "minRentalDuration",
          "type": "uint64"
        },
        {
          "indexed": false,
          "internalType": "uint64",
          "name": "maxRentalDuration",
          "type": "uint64"
        },
        {
          "indexed": false,
          "internalType": "uint64",
          "name": "biddingPhaseDuration",
          "type": "uint64"
        },
        {
          "indexed": false,
          "internalType": "uint64",
          "name": "biddingPhaseExtensionDuration",
          "type": "uint64"
        }
      ],
      "name": "Initialized",
      "type": "event"
    },
    {
      "anonymous": false,
      "inputs": [
        {
          "indexed": false,
          "internalType": "uint8",
          "name": "version",
          "type": "uint8"
        }
      ],
      "name": "Initialized",
      "type": "event"
    },
    {
      "anonymous": false,
      "inputs": [
        {
          "indexed": true,
          "internalType": "address",
          "name": "bidder",
          "type": "address"
        },
        {
          "indexed": false,
          "internalType": "int96",
          "name": "flowRate",
          "type": "int96"
        }
      ],
      "name": "NewTopBid",
      "type": "event"
    },
    {
      "anonymous": false,
      "inputs": [
        {
          "indexed": true,
          "internalType": "address",
          "name": "topBidder",
          "type": "address"
        },
        {
          "indexed": false,
          "internalType": "int96",
          "name": "flowRate",
          "type": "int96"
        }
      ],
      "name": "Paused",
      "type": "event"
    },
    {
      "anonymous": false,
      "inputs": [
        {
          "indexed": true,
          "internalType": "address",
          "name": "topBidder",
          "type": "address"
        },
        {
          "indexed": false,
          "internalType": "int96",
          "name": "flowRate",
          "type": "int96"
        }
      ],
      "name": "TransitionToRentalPhaseFailed",
      "type": "event"
    },
    {
      "anonymous": false,
      "inputs": [],
      "name": "TransitionedToBiddingPhase",
      "type": "event"
    },
    {
      "anonymous": false,
      "inputs": [
        {
          "indexed": true,
          "internalType": "address",
          "name": "renter",
          "type": "address"
        },
        {
          "indexed": false,
          "internalType": "int96",
          "name": "flowRate",
          "type": "int96"
        }
      ],
      "name": "TransitionedToBiddingPhaseEarly",
      "type": "event"
    },
    {
      "anonymous": false,
      "inputs": [
        {
          "indexed": true,
          "internalType": "address",
          "name": "renter",
          "type": "address"
        },
        {
          "indexed": false,
          "internalType": "int96",
          "name": "flowRate",
          "type": "int96"
        }
      ],
      "name": "TransitionedToRentalPhase",
      "type": "event"
    },
    {
      "anonymous": false,
      "inputs": [],
      "name": "Unpaused",
      "type": "event"
    },
    {
      "inputs": [],
      "name": "acceptedToken",
      "outputs": [
        {
          "internalType": "contract ISuperToken",
          "name": "",
          "type": "address"
        }
      ],
      "stateMutability": "view",
      "type": "function"
    },
    {
      "inputs": [
        {
          "internalType": "contract ISuperToken",
          "name": "",
          "type": "address"
        },
        {
          "internalType": "address",
          "name": "",
          "type": "address"
        },
        {
          "internalType": "bytes32",
          "name": "",
          "type": "bytes32"
        },
        {
          "internalType": "bytes",
          "name": "",
          "type": "bytes"
        },
        {
          "internalType": "bytes",
          "name": "",
          "type": "bytes"
        },
        {
          "internalType": "bytes",
          "name": "_ctx",
          "type": "bytes"
        }
      ],
      "name": "afterAgreementCreated",
      "outputs": [
        {
          "internalType": "bytes",
          "name": "newCtx",
          "type": "bytes"
        }
      ],
      "stateMutability": "nonpayable",
      "type": "function"
    },
    {
      "inputs": [
        {
          "internalType": "contract ISuperToken",
          "name": "_superToken",
          "type": "address"
        },
        {
          "internalType": "address",
          "name": "_agreementClass",
          "type": "address"
        },
        {
          "internalType": "bytes32",
          "name": "",
          "type": "bytes32"
        },
        {
          "internalType": "bytes",
          "name": "_agreementData",
          "type": "bytes"
        },
        {
          "internalType": "bytes",
          "name": "",
          "type": "bytes"
        },
        {
          "internalType": "bytes",
          "name": "_ctx",
          "type": "bytes"
        }
      ],
      "name": "afterAgreementTerminated",
      "outputs": [
        {
          "internalType": "bytes",
          "name": "newCtx",
          "type": "bytes"
        }
      ],
      "stateMutability": "nonpayable",
      "type": "function"
    },
    {
      "inputs": [
        {
          "internalType": "contract ISuperToken",
          "name": "",
          "type": "address"
        },
        {
          "internalType": "address",
          "name": "",
          "type": "address"
        },
        {
          "internalType": "bytes32",
          "name": "",
          "type": "bytes32"
        },
        {
          "internalType": "bytes",
          "name": "",
          "type": "bytes"
        },
        {
          "internalType": "bytes",
          "name": "",
          "type": "bytes"
        },
        {
          "internalType": "bytes",
          "name": "",
          "type": "bytes"
        }
      ],
      "name": "afterAgreementUpdated",
      "outputs": [
        {
          "internalType": "bytes",
          "name": "",
          "type": "bytes"
        }
      ],
      "stateMutability": "nonpayable",
      "type": "function"
    },
    {
      "inputs": [
        {
          "internalType": "contract ISuperToken",
          "name": "",
          "type": "address"
        },
        {
          "internalType": "address",
          "name": "",
          "type": "address"
        },
        {
          "internalType": "bytes32",
          "name": "",
          "type": "bytes32"
        },
        {
          "internalType": "bytes",
          "name": "",
          "type": "bytes"
        },
        {
          "internalType": "bytes",
          "name": "",
          "type": "bytes"
        }
      ],
      "name": "beforeAgreementCreated",
      "outputs": [
        {
          "internalType": "bytes",
          "name": "",
          "type": "bytes"
        }
      ],
      "stateMutability": "view",
      "type": "function"
    },
    {
      "inputs": [
        {
          "internalType": "contract ISuperToken",
          "name": "",
          "type": "address"
        },
        {
          "internalType": "address",
          "name": "",
          "type": "address"
        },
        {
          "internalType": "bytes32",
          "name": "",
          "type": "bytes32"
        },
        {
          "internalType": "bytes",
          "name": "",
          "type": "bytes"
        },
        {
          "internalType": "bytes",
          "name": "",
          "type": "bytes"
        }
      ],
      "name": "beforeAgreementTerminated",
      "outputs": [
        {
          "internalType": "bytes",
          "name": "",
          "type": "bytes"
        }
      ],
      "stateMutability": "view",
      "type": "function"
    },
    {
      "inputs": [
        {
          "internalType": "contract ISuperToken",
          "name": "",
          "type": "address"
        },
        {
          "internalType": "address",
          "name": "",
          "type": "address"
        },
        {
          "internalType": "bytes32",
          "name": "",
          "type": "bytes32"
        },
        {
          "internalType": "bytes",
          "name": "",
          "type": "bytes"
        },
        {
          "internalType": "bytes",
          "name": "",
          "type": "bytes"
        }
      ],
      "name": "beforeAgreementUpdated",
      "outputs": [
        {
          "internalType": "bytes",
          "name": "",
          "type": "bytes"
        }
      ],
      "stateMutability": "view",
      "type": "function"
    },
    {
      "inputs": [],
      "name": "beneficiary",
      "outputs": [
        {
          "internalType": "address",
          "name": "",
          "type": "address"
        }
      ],
      "stateMutability": "view",
      "type": "function"
    },
    {
      "inputs": [],
      "name": "biddingPhaseDuration",
      "outputs": [
        {
          "internalType": "uint64",
          "name": "",
          "type": "uint64"
        }
      ],
      "stateMutability": "view",
      "type": "function"
    },
    {
      "inputs": [],
      "name": "biddingPhaseExtensionDuration",
      "outputs": [
        {
          "internalType": "uint64",
          "name": "",
          "type": "uint64"
        }
      ],
      "stateMutability": "view",
      "type": "function"
    },
    {
      "inputs": [],
      "name": "cfa",
      "outputs": [
        {
          "internalType": "contract IConstantFlowAgreementV1",
          "name": "",
          "type": "address"
        }
      ],
      "stateMutability": "view",
      "type": "function"
    },
    {
      "inputs": [],
      "name": "controllerObserver",
      "outputs": [
        {
          "internalType": "contract IRentalAuctionControllerObserver",
          "name": "",
          "type": "address"
        }
      ],
      "stateMutability": "view",
      "type": "function"
    },
    {
      "inputs": [],
      "name": "currentPhaseEndTime",
      "outputs": [
        {
          "internalType": "uint256",
          "name": "",
          "type": "uint256"
        }
      ],
      "stateMutability": "view",
      "type": "function"
    },
    {
      "inputs": [],
      "name": "currentRenter",
      "outputs": [
        {
          "internalType": "address",
          "name": "",
          "type": "address"
        }
      ],
      "stateMutability": "view",
      "type": "function"
    },
    {
      "inputs": [],
      "name": "depositClaimed",
      "outputs": [
        {
          "internalType": "bool",
          "name": "",
          "type": "bool"
        }
      ],
      "stateMutability": "view",
      "type": "function"
    },
    {
      "inputs": [],
      "name": "host",
      "outputs": [
        {
          "internalType": "contract ISuperfluid",
          "name": "",
          "type": "address"
        }
      ],
      "stateMutability": "view",
      "type": "function"
    },
    {
      "inputs": [
        {
          "internalType": "contract ISuperToken",
          "name": "_acceptedToken",
          "type": "address"
        },
        {
          "internalType": "contract ISuperfluid",
          "name": "_host",
          "type": "address"
        },
        {
          "internalType": "contract IConstantFlowAgreementV1",
          "name": "_cfa",
          "type": "address"
        },
        {
          "internalType": "contract IRentalAuctionControllerObserver",
          "name": "_controllerObserver",
          "type": "address"
        },
        {
          "internalType": "address",
          "name": "_beneficiary",
          "type": "address"
        },
        {
          "internalType": "uint96",
          "name": "_minimumBidFactorWad",
          "type": "uint96"
        },
        {
          "internalType": "int96",
          "name": "_reserveRate",
          "type": "int96"
        },
        {
          "internalType": "uint64",
          "name": "_minRentalDuration",
          "type": "uint64"
        },
        {
          "internalType": "uint64",
          "name": "_maxRentalDuration",
          "type": "uint64"
        },
        {
          "internalType": "uint64",
          "name": "_biddingPhaseDuration",
          "type": "uint64"
        },
        {
          "internalType": "uint64",
          "name": "_biddingPhaseExtensionDuration",
          "type": "uint64"
        }
      ],
      "name": "initialize",
      "outputs": [],
      "stateMutability": "nonpayable",
      "type": "function"
    },
    {
      "inputs": [
        {
          "internalType": "int96",
          "name": "upper",
          "type": "int96"
        },
        {
          "internalType": "int96",
          "name": "lower",
          "type": "int96"
        }
      ],
      "name": "isBidHigher",
      "outputs": [
        {
          "internalType": "bool",
          "name": "",
          "type": "bool"
        }
      ],
      "stateMutability": "view",
      "type": "function"
    },
    {
      "inputs": [],
      "name": "isBiddingPhase",
      "outputs": [
        {
          "internalType": "bool",
          "name": "",
          "type": "bool"
        }
      ],
      "stateMutability": "view",
      "type": "function"
    },
    {
      "inputs": [],
      "name": "isRentalPhase",
      "outputs": [
        {
          "internalType": "bool",
          "name": "",
          "type": "bool"
        }
      ],
      "stateMutability": "view",
      "type": "function"
    },
    {
      "inputs": [],
      "name": "maxRentalDuration",
      "outputs": [
        {
          "internalType": "uint64",
          "name": "",
          "type": "uint64"
        }
      ],
      "stateMutability": "view",
      "type": "function"
    },
    {
      "inputs": [],
      "name": "minRentalDuration",
      "outputs": [
        {
          "internalType": "uint64",
          "name": "",
          "type": "uint64"
        }
      ],
      "stateMutability": "view",
      "type": "function"
    },
    {
      "inputs": [],
      "name": "minimumBidFactorWad",
      "outputs": [
        {
          "internalType": "uint256",
          "name": "",
          "type": "uint256"
        }
      ],
      "stateMutability": "view",
      "type": "function"
    },
    {
      "inputs": [],
      "name": "pause",
      "outputs": [],
      "stateMutability": "nonpayable",
      "type": "function"
    },
    {
      "inputs": [],
      "name": "paused",
      "outputs": [
        {
          "internalType": "bool",
          "name": "",
          "type": "bool"
        }
      ],
      "stateMutability": "view",
      "type": "function"
    },
    {
      "inputs": [
        {
          "internalType": "int96",
          "name": "flowRate",
          "type": "int96"
        }
      ],
      "name": "placeBid",
      "outputs": [],
      "stateMutability": "nonpayable",
      "type": "function"
    },
    {
      "inputs": [
        {
          "internalType": "int96",
          "name": "flowRate",
          "type": "int96"
        },
        {
          "internalType": "bytes",
          "name": "_ctx",
          "type": "bytes"
        }
      ],
      "name": "placeBid",
      "outputs": [
        {
          "internalType": "bytes",
          "name": "",
          "type": "bytes"
        }
      ],
      "stateMutability": "nonpayable",
      "type": "function"
    },
    {
      "inputs": [],
      "name": "reclaimDeposit",
      "outputs": [],
      "stateMutability": "nonpayable",
      "type": "function"
    },
    {
      "inputs": [],
      "name": "reserveRate",
      "outputs": [
        {
          "internalType": "int96",
          "name": "",
          "type": "int96"
        }
      ],
      "stateMutability": "view",
      "type": "function"
    },
    {
      "inputs": [],
      "name": "topBidder",
      "outputs": [
        {
          "internalType": "address",
          "name": "",
          "type": "address"
        }
      ],
      "stateMutability": "view",
      "type": "function"
    },
    {
      "inputs": [],
      "name": "topFlowRate",
      "outputs": [
        {
          "internalType": "int96",
          "name": "",
          "type": "int96"
        }
      ],
      "stateMutability": "view",
      "type": "function"
    },
    {
      "inputs": [],
      "name": "transitionToBiddingPhase",
      "outputs": [],
      "stateMutability": "nonpayable",
      "type": "function"
    },
    {
      "inputs": [],
      "name": "transitionToRentalPhase",
      "outputs": [],
      "stateMutability": "nonpayable",
      "type": "function"
    },
    {
      "inputs": [],
      "name": "unpause",
      "outputs": [],
      "stateMutability": "nonpayable",
      "type": "function"
    }
  ],
  "bytecode": {
    "object": "0x608060405234801561001057600080fd5b50612e39806100206000396000f3fe608060405234801561001057600080fd5b50600436106102065760003560e01c8063451c3d801161011a57806383e98bc3116100ad5780639abb8a5f1161007c5780639abb8a5f1461047b578063ac99adf014610483578063b0dd16341461049d578063d86ed3e5146104a6578063f437bc59146104b957600080fd5b806383e98bc3146104335780638456cb5914610446578063884d1f401461044e57806396f6fe911461046157600080fd5b80635c975abb116100e95780635c975abb146103ec5780635f9e7d77146103fe5780636ecea2ec146104115780637ce4026f1461041957600080fd5b8063451c3d801461039957806353c11f99146103b257806356898a4e146103c557806358d7bf80146103d857600080fd5b8063230dbd291161019d57806334f1a8d31161016c57806334f1a8d31461032e57806338aa103c1461035957806338af3eed1461036b5780633ed58ed11461037e5780633f4ba83a1461039157600080fd5b8063230dbd29146102dc578063242f17a9146102fc5780633047d5fb1461030457806330d9c9151461031b57600080fd5b806317ddfb48116101d957806317ddfb48146102885780631e319aee146102ac5780631f3ff68d146102c157806321e39ee8146102c957600080fd5b806301333f061461020b578063016c2d9a1461023b578063040e2c20146102625780631054df8c14610275575b600080fd5b60075461021e906001600160a01b031681565b6040516001600160a01b0390911681526020015b60405180910390f35b60075461024f90600160a01b9004600b0b81565b604051600b9190910b8152602001610232565b60035461021e906001600160a01b031681565b60025461021e906001600160a01b031681565b60085461029c906301000000900460ff1681565b6040519015158152602001610232565b6102bf6102ba366004612524565b6104cc565b005b6102bf610547565b61029c6102d7366004612546565b610759565b6102ef6102ea3660046125d6565b610799565b60405161023291906126f0565b61021e610800565b61030d60055481565b604051908152602001610232565b6102ef610329366004612703565b610829565b600654610341906001600160401b031681565b6040516001600160401b039091168152602001610232565b60085462010000900460ff161561029c565b60045461021e906001600160a01b031681565b6102ef61038c3660046127a1565b61088c565b6102bf6109ef565b60005461021e906201000090046001600160a01b031681565b6102ef6103c03660046125d6565b610a77565b6102bf6103d336600461280a565b610f19565b60045461024f90600160a01b9004600b0b81565b60085461029c90610100900460ff1681565b6102ef61040c366004612703565b611285565b6102bf6112ec565b60065461034190600160401b90046001600160401b031681565b60085461029c9062010000900460ff1681565b6102bf6115f7565b6102ef61045c366004612703565b6117d4565b60065461034190600160801b90046001600160401b031681565b6102bf611837565b60065461034190600160c01b90046001600160401b031681565b61030d60095481565b6102ef6104b43660046125d6565b611ab6565b60015461021e906001600160a01b031681565b60085462010000900460ff1615806104f3575060006009541180156104f357506009544210155b15610511576040516353df604760e11b815260040160405180910390fd5b600854610100900460ff161561053a57604051631309a56360e01b815260040160405180910390fd5b6105443382611cef565b50565b600854610100900460ff161561057057604051631309a56360e01b815260040160405180910390fd5b60085462010000900460ff161561059a57604051635d1a12e560e01b815260040160405180910390fd5b6007546001600160a01b03163381146105c5576040516282b42960e81b815260040160405180910390fd5b6008546301000000900460ff16156105f057604051630662741160e01b815260040160405180910390fd5b60065460095460009161061491600160401b9091046001600160401b031690612904565b60065490915061062d906001600160401b031682612917565b42101561064d576040516355267b7960e01b815260040160405180910390fd5b6008805463ff0000001916630100000017905560065460075460009161068f916001600160401b03909116906001600160601b03600160a01b9091041661292a565b60005460405163a9059cbb60e01b81526001600160a01b03868116600483015260248201849052929350620100009091049091169063a9059cbb906044016020604051808303816000875af11580156106ec573d6000803e3d6000fd5b505050506040513d601f19601f820116820180604052508101906107109190612949565b50826001600160a01b03167fe800e3ea37ded367af4fce9aa5ecaa72b693f315a2c3b6c7a3d07c84196515fb8260405161074c91815260200190565b60405180910390a2505050565b6000670de0b6b3a7640000600554836001600160601b031661077b919061292a565b610785919061296b565b836001600160601b03161190505b92915050565b60405162461bcd60e51b815260206004820152602e60248201527f556e737570706f727465642063616c6c6261636b202d2041667465722041677260448201526d19595b595b9d08155c19185d195960921b60648201526060906084015b60405180910390fd5b60085460009062010000900460ff1661082357506007546001600160a01b031690565b50600090565b60405162461bcd60e51b815260206004820152602f60248201527f556e737570706f727465642063616c6c6261636b202d204265666f726520416760448201526e1c99595b595b9d0810dc99585d1959608a1b60648201526060906084016107f7565b6001546060906001600160a01b031633146108b9576040516282b42960e81b815260040160405180910390fd5b60085462010000900460ff1615806108e0575060006009541180156108e057506009544210155b156108fe576040516353df604760e11b815260040160405180910390fd5b600854610100900460ff161561092757604051631309a56360e01b815260040160405180910390fd5b600154604051631fb6491d60e11b81526000916001600160a01b031690633f6c923a9061095a908790879060040161298d565b600060405180830381865afa158015610977573d6000803e3d6000fd5b505050506040513d6000823e601f3d908101601f1916820160405261099f9190810190612ab6565b6060015190506109af8186611cef565b83838080601f0160208091040260200160405190810160405280939291908181526020018383808284376000920191909152509298975050505050505050565b6003546001600160a01b03163314610a19576040516282b42960e81b815260040160405180910390fd5b600854610100900460ff16610a415760405163bc871ce560e01b815260040160405180910390fd5b6008805461ff00191690556040517fa45f47fdea8a1efdd9029a5691c7f759c32b7c698632b563573e155625d1693390600090a1565b6001546060906001600160a01b03163314610aa4576040516282b42960e81b815260040160405180910390fd5b610ae26040518060400160405280601881526020017f616674657241677265656d656e745465726d696e617465640000000000000000815250611ffa565b6000546001600160a01b038b81166201000090920416141580610b1357506002546001600160a01b038a8116911614155b15610b575782828080601f016020809104026020016040519081016040528093929190818152602001838380828437600092019190915250929350610f0c92505050565b82828080601f01602080910402602001604051908101604052809392919081815260200183838082843760009201829052506007549495506001600160a01b03851694600160a01b9004600b0b93509150610bb69050898b018b612bbc565b5060085490915062010000900460ff16158015610be45750826001600160a01b0316816001600160a01b0316145b15610f0857600454600054610c0e916001600160a01b03620100009092048216913091168761203d565b6008549094506301000000900460ff16610e315760095460065460009190610c4690600160401b90046001600160401b031642612917565b610c509190612904565b610c63906001600160601b03851661292a565b600654909150600090610c88906001600160401b03166001600160601b03861661292a565b9050808210610d155760005460405163a9059cbb60e01b81526001600160a01b03858116600483015260248201849052620100009092049091169063a9059cbb906044016020604051808303816000875af1158015610ceb573d6000803e3d6000fd5b505050506040513d601f19601f82011682018060405250810190610d0f9190612949565b50610e2e565b6000546004546001600160a01b036201000090920482169163a9059cbb9116610d3e8585612904565b6040516001600160e01b031960e085901b1681526001600160a01b03909216600483015260248201526044016020604051808303816000875af1158015610d89573d6000803e3d6000fd5b505050506040513d601f19601f82011682018060405250810190610dad9190612949565b5060005460405163a9059cbb60e01b81526001600160a01b03858116600483015260248201859052620100009092049091169063a9059cbb906044016020604051808303816000875af1158015610e08573d6000803e3d6000fd5b505050506040513d601f19601f82011682018060405250810190610e2c9190612949565b505b50505b600880546000600955600780546001600160a01b0390811690915563ffff00001990911662010000179091556003541615610ec557600354604051631ff0045b60e01b8152600060048201526001600160a01b0390911690631ff0045b90602401600060405180830381600087803b158015610eac57600080fd5b505af1158015610ec0573d6000803e3d6000fd5b505050505b604051600b83900b81526001600160a01b038416907fc1e73fbcc0647788c9303b3c4ce3dcec2c36c97db01d1984b0a40a94906b59ca9060200160405180910390a25b5050505b9998505050505050505050565b600054610100900460ff1615808015610f395750600054600160ff909116105b80610f535750303b158015610f53575060005460ff166001145b610fb65760405162461bcd60e51b815260206004820152602e60248201527f496e697469616c697a61626c653a20636f6e747261637420697320616c72656160448201526d191e481a5b9a5d1a585b1a5e995960921b60648201526084016107f7565b6000805460ff191660011790558015610fd9576000805461ff0019166101001790555b6001600160a01b038c16610fec57600080fd5b6001600160a01b038b16610fff57600080fd5b6001600160a01b038a1661101257600080fd5b6001600160a01b03881661102557600080fd5b670de0b6b3a7640000876001600160601b0316101561104357600080fd5b600086600b0b121561105457600080fd5b6000856001600160401b03161161106a57600080fd5b846001600160401b0316846001600160401b0316101561108957600080fd5b6000826001600160401b03161161109f57600080fd5b816001600160401b0316836001600160401b031610156110be57600080fd5b6000805462010000600160b01b031916620100006001600160a01b038f811691820292909217909255600180546001600160a01b03199081168f8416179091556002805482168e8416179055600380549091168c83169081179091556001600160601b038a81166005819055928c16600160a01b918b16919091028117600455600680546001600160401b038b81166fffffffffffffffffffffffffffffffff199092168217600160401b8c8316908102919091176fffffffffffffffffffffffffffffffff16600160801b8c84169081026001600160c01b031691909117600160c01b938c16938402179094556008805462ffffff191662010101179055604080519889526020890196909652948701939093526060860194909452600b8b900b608086015260a085019390935260c084019190915260e08301919091526101008201527fb27e28c76352ad714ebb48ca18fcca0a1ec6847139d08a3a246d4eba5507ee32906101200160405180910390a18015611277576000805461ff0019169055604051600181527f7f26b83ff96e1f2b6a682f133852f6798a09c465da95921460cefb38474024989060200160405180910390a15b505050505050505050505050565b60405162461bcd60e51b815260206004820152603360248201527f556e737570706f727465642063616c6c6261636b202d20204265666f7265204160448201527219dc99595b595b9d0815195c9b5a5b985d1959606a1b60648201526060906084016107f7565b600854610100900460ff161561131557604051631309a56360e01b815260040160405180910390fd5b60085462010000900460ff161561133f5760405163a3ddecbd60e01b815260040160405180910390fd5b6009544210156113625760405163635237c760e11b815260040160405180910390fd5b600454600054611386916001600160a01b0362010000909204821691309116612166565b506008546301000000900460ff1661145257600054600754600654620100009092046001600160a01b039081169263a9059cbb92918216916113e1916001600160401b031690600160a01b90046001600160601b031661292a565b6040516001600160e01b031960e085901b1681526001600160a01b03909216600483015260248201526044016020604051808303816000875af115801561142c573d6000803e3d6000fd5b505050506040513d601f19601f820116820180604052508101906114509190612949565b505b6008805463ffff000019166201000090811790915560006009819055600780546001600160a01b0390811691829055600154600254845460408051968752602087019052918316956339255d5b9591841694859463b4b333c6946114c0949390041691309060448101612bf5565b60408051601f19818403018152918152602080830180516001600160e01b031660e095861b179052815160008152908101918290529286901b6001600160e01b03191690526115159392509060248101612c29565b6000604051808303816000875af192505050801561155557506040513d6000823e601f3d908101601f191682016040526115529190810190612c5f565b60015b1561155c57505b6003546001600160a01b0316156115cc57600354604051631ff0045b60e01b8152600060048201526001600160a01b0390911690631ff0045b90602401600060405180830381600087803b1580156115b357600080fd5b505af11580156115c7573d6000803e3d6000fd5b505050505b6040517f3f634313ae3ffeb092439678c6f527c6095d0da8edc8bb709fefb98f9905485290600090a1565b6003546001600160a01b03163314611621576040516282b42960e81b815260040160405180910390fd5b600854610100900460ff161561164a57604051631309a56360e01b815260040160405180910390fd5b60085462010000900460ff1615806116715750600060095411801561167157506009544210155b1561168f576040516353df604760e11b815260040160405180910390fd5b6008805461ff0019166101001790556007546001600160a01b03811690600160a01b9004600b0b600081131561176b57600054600654620100009091046001600160a01b03169063a9059cbb9084906116fa906001600160401b03166001600160601b03861661292a565b6040516001600160e01b031960e085901b1681526001600160a01b03909216600483015260248201526044016020604051808303816000875af1158015611745573d6000803e3d6000fd5b505050506040513d601f19601f820116820180604052508101906117699190612949565b505b6008805463ffff00001916620100001790556000600955600780546001600160a01b03908116909155604051600b83900b8152908316907f141dc4240f18a393e25ff69722e390fbba795f4f73f89bb1612dfdd041238841906020015b60405180910390a25050565b60405162461bcd60e51b815260206004820152602f60248201527f556e737570706f727465642063616c6c6261636b202d204265666f726520416760448201526e1c99595b595b9d081d5c19185d1959608a1b60648201526060906084016107f7565b600854610100900460ff161561186057604051631309a56360e01b815260040160405180910390fd5b60085462010000900460ff1661188957604051631b37398160e11b815260040160405180910390fd5b6009541580611899575060095442105b156118b75760405163635237c760e11b815260040160405180910390fd5b6007546001546002546000805460408051928352602083019052600160a01b8504600b0b946001600160a01b03908116948116936339255d5b939082169283926394229ecb9261191a9262010000900490911690889030908b9060448101612c9b565b60408051601f19818403018152918152602080830180516001600160e01b031660e095861b179052815160008152908101918290529286901b6001600160e01b031916905261196f9392509060248101612c29565b6000604051808303816000875af19250505080156119af57506040513d6000823e601f3d908101601f191682016040526119ac9190810190612c5f565b60015b611ab1576000546004546006546001600160a01b036201000090930483169263a9059cbb9216906119f2906001600160401b03166001600160601b03871661292a565b6040516001600160e01b031960e085901b1681526001600160a01b03909216600483015260248201526044016020604051808303816000875af1158015611a3d573d6000803e3d6000fd5b505050506040513d601f19601f82011682018060405250810190611a619190612949565b50600780546001600160a01b039081169091556000600955604051600b84900b8152908216907f42d967e995cf8754bd8d1c4edabe66753b6c0e6b03f4bef06bf5a3eb5fe360e4906020016117c8565b505050565b6001546060906001600160a01b03163314611ae3576040516282b42960e81b815260040160405180910390fd5b600154604051631fb6491d60e11b815230916001600160a01b031690633f6c923a90611b15908790879060040161298d565b600060405180830381865afa158015611b32573d6000803e3d6000fd5b505050506040513d6000823e601f3d908101601f19168201604052611b5a9190810190612ab6565b606001516001600160a01b031614611b855760405163019ec8b360e31b815260040160405180910390fd5b6007546008805462ff0000191690556006546001600160a01b03821691600160a01b9004600b0b90611bc790600160401b90046001600160401b031642612917565b600955600454604080516020601f8801819004810282018101909252868152611c2a926001600160a01b03169184919089908990819084018382808284376000920182905250546201000090046001600160a01b0316959493925061229a915050565b6003549093506001600160a01b031615611c9e57600354604051631ff0045b60e01b81526001600160a01b03848116600483015290911690631ff0045b90602401600060405180830381600087803b158015611c8557600080fd5b505af1158015611c99573d6000803e3d6000fd5b505050505b604051600b82900b81526001600160a01b038316907f80b4922304eae1fa64e628db175f18ee543a12528075e254adfeb0160838f3ab9060200160405180910390a250509998505050505050505050565b600081600b0b13611d1357604051637f133f2160e11b815260040160405180910390fd5b600754611d2b908290600160a01b9004600b0b610759565b1580611d475750600454600160a01b9004600b90810b9082900b125b15611d65576040516353a24db360e11b815260040160405180910390fd5b6004546001600160a01b0390811690831603611d94576040516322fe227560e11b815260040160405180910390fd5b600780546001600160a01b038481166001600160601b038516600160a01b9081026001600160a01b0319811692909217909455600954938304600b0b93908216919092161790600003611e0657600654611dfe90600160801b90046001600160401b031642612917565b600955611e50565b600654600954600160c01b9091046001600160401b031690611e29904290612904565b1015611e5057600654611e4c90600160c01b90046001600160401b031642612917565b6009555b600654600090611e72906001600160401b03166001600160601b03861661292a565b6000546040516323b872dd60e01b81526001600160a01b0388811660048301523060248301526044820184905292935062010000909104909116906323b872dd906064016020604051808303816000875af1158015611ed5573d6000803e3d6000fd5b505050506040513d601f19601f82011682018060405250810190611ef99190612949565b5082600b0b600014611fb157600054600654620100009091046001600160a01b03169063a9059cbb908490611f40906001600160401b03166001600160601b03881661292a565b6040516001600160e01b031960e085901b1681526001600160a01b03909216600483015260248201526044016020604051808303816000875af1158015611f8b573d6000803e3d6000fd5b505050506040513d601f19601f82011682018060405250810190611faf9190612949565b505b604051600b85900b81526001600160a01b038616907f441c29b7058c97d0ec2d7e8ef68437ba13a4911a56cf882c490b1cb5d2917b639060200160405180910390a25050505050565b6105448160405160240161200e91906126f0565b60408051601f198184030181529190526020810180516001600160e01b031663104c13eb60e21b179052612325565b606060008061204b87612346565b91509150816001600160a01b0316634329d29382836001600160a01b031663b4b333c68b8b8b60006001600160401b0381111561208a5761208a6129bc565b6040519080825280601f01601f1916602001820160405280156120b4576020820181803683370190505b506040516024016120c89493929190612bf5565b60408051808303601f1901815291815260208201805160e094851b6001600160e01b03909116179052519185901b6001600160e01b0319168252612113939250908990600401612ce4565b6000604051808303816000875af1158015612132573d6000803e3d6000fd5b505050506040513d6000823e601f3d908101601f1916820160405261215a9190810190612d37565b50979650505050505050565b600080600061217486612346565b91509150816001600160a01b03166339255d5b82836001600160a01b031663b4b333c68a8a8a60006001600160401b038111156121b3576121b36129bc565b6040519080825280601f01601f1916602001820160405280156121dd576020820181803683370190505b506040516024016121f19493929190612bf5565b60408051601f19818403018152918152602080830180516001600160e01b031660e095861b179052815160008152908101918290529286901b6001600160e01b03191690526122469392509060248101612c29565b6000604051808303816000875af1158015612265573d6000803e3d6000fd5b505050506040513d6000823e601f3d908101601f1916820160405261228d9190810190612c5f565b5060019695505050505050565b60606000806122a887612346565b91509150816001600160a01b0316634329d29382836001600160a01b03166362fc305e8b8b8b60006001600160401b038111156122e7576122e76129bc565b6040519080825280601f01601f191660200182016040528015612311576020820181803683370190505b506040516024016120c89493929190612d9a565b80516a636f6e736f6c652e6c6f67602083016000808483855afa5050505050565b7f65599bf746e17a00ea62e3610586992d88101b78eec3cf380706621fb97ea837547fb969d79d88acd02d04ed7ee7d43b949e7daf093d363abcfbbc43dfdfd1ce969a546001600160a01b0381166124dc576001600160a01b03821661240b57826001600160a01b03166320bc44256040518163ffffffff1660e01b8152600401602060405180830381865afa1580156123e4573d6000803e3d6000fd5b505050506040513d601f19601f820116820180604052508101906124089190612dd0565b91505b604051635b69006f60e11b81527fa9214cc96615e0085d3bb077758db69497dc2dce3b2b1e97bc93c3d18d83efd360048201526001600160a01b0383169063b6d200de90602401602060405180830381865afa15801561246f573d6000803e3d6000fd5b505050506040513d601f19601f820116820180604052508101906124939190612dd0565b9050817f65599bf746e17a00ea62e3610586992d88101b78eec3cf380706621fb97ea83755807fb969d79d88acd02d04ed7ee7d43b949e7daf093d363abcfbbc43dfdfd1ce969a555b6001600160a01b0382166124f2576124f2612ded565b6001600160a01b03811661250857612508612ded565b915091565b8035600b81900b811461251f57600080fd5b919050565b60006020828403121561253657600080fd5b61253f8261250d565b9392505050565b6000806040838503121561255957600080fd5b6125628361250d565b91506125706020840161250d565b90509250929050565b6001600160a01b038116811461054457600080fd5b60008083601f8401126125a057600080fd5b5081356001600160401b038111156125b757600080fd5b6020830191508360208285010111156125cf57600080fd5b9250929050565b600080600080600080600080600060c08a8c0312156125f457600080fd5b89356125ff81612579565b985060208a013561260f81612579565b975060408a0135965060608a01356001600160401b038082111561263257600080fd5b61263e8d838e0161258e565b909850965060808c013591508082111561265757600080fd5b6126638d838e0161258e565b909650945060a08c013591508082111561267c57600080fd5b506126898c828d0161258e565b915080935050809150509295985092959850929598565b60005b838110156126bb5781810151838201526020016126a3565b50506000910152565b600081518084526126dc8160208601602086016126a0565b601f01601f19169290920160200192915050565b60208152600061253f60208301846126c4565b600080600080600080600060a0888a03121561271e57600080fd5b873561272981612579565b9650602088013561273981612579565b95506040880135945060608801356001600160401b038082111561275c57600080fd5b6127688b838c0161258e565b909650945060808a013591508082111561278157600080fd5b5061278e8a828b0161258e565b989b979a50959850939692959293505050565b6000806000604084860312156127b657600080fd5b6127bf8461250d565b925060208401356001600160401b038111156127da57600080fd5b6127e68682870161258e565b9497909650939450505050565b80356001600160401b038116811461251f57600080fd5b60008060008060008060008060008060006101608c8e03121561282c57600080fd5b8b3561283781612579565b9a5060208c013561284781612579565b995060408c013561285781612579565b985060608c013561286781612579565b975060808c013561287781612579565b965060a08c01356001600160601b038116811461289357600080fd5b95506128a160c08d0161250d565b94506128af60e08d016127f3565b93506128be6101008d016127f3565b92506128cd6101208d016127f3565b91506128dc6101408d016127f3565b90509295989b509295989b9093969950565b634e487b7160e01b600052601160045260246000fd5b81810381811115610793576107936128ee565b80820180821115610793576107936128ee565b6000816000190483118215151615612944576129446128ee565b500290565b60006020828403121561295b57600080fd5b8151801515811461253f57600080fd5b60008261298857634e487b7160e01b600052601260045260246000fd5b500490565b60208152816020820152818360408301376000818301604090810191909152601f909201601f19160101919050565b634e487b7160e01b600052604160045260246000fd5b60405161016081016001600160401b03811182821017156129f5576129f56129bc565b60405290565b805160ff8116811461251f57600080fd5b805161251f81612579565b80516001600160e01b03198116811461251f57600080fd5b600082601f830112612a4057600080fd5b81516001600160401b0380821115612a5a57612a5a6129bc565b604051601f8301601f19908116603f01168101908282118183101715612a8257612a826129bc565b81604052838152866020858801011115612a9b57600080fd5b612aac8460208301602089016126a0565b9695505050505050565b600060208284031215612ac857600080fd5b81516001600160401b0380821115612adf57600080fd5b908301906101608286031215612af457600080fd5b612afc6129d2565b612b05836129fb565b8152612b13602084016129fb565b602082015260408301516040820152612b2e60608401612a0c565b6060820152612b3f60808401612a17565b608082015260a083015182811115612b5657600080fd5b612b6287828601612a2f565b60a08301525060c083015160c082015260e083015160e0820152610100915081830151828201526101209150612b99828401612a0c565b828201526101409150612bad828401612a0c565b91810191909152949350505050565b60008060408385031215612bcf57600080fd5b8235612bda81612579565b91506020830135612bea81612579565b809150509250929050565b6001600160a01b038581168252848116602083015283166040820152608060608201819052600090612aac908301846126c4565b6001600160a01b0384168152606060208201819052600090612c4d908301856126c4565b8281036040840152612aac81856126c4565b600060208284031215612c7157600080fd5b81516001600160401b03811115612c8757600080fd5b612c9384828501612a2f565b949350505050565b6001600160a01b038681168252858116602083015284166040820152600b83900b606082015260a060808201819052600090612cd9908301846126c4565b979650505050505050565b6001600160a01b0384168152608060208201819052600090612d08908301856126c4565b8281038060408501526002825261060f60f31b602083015260408101606085015250612aac60408201856126c4565b60008060408385031215612d4a57600080fd5b82516001600160401b0380821115612d6157600080fd5b612d6d86838701612a2f565b93506020850151915080821115612d8357600080fd5b50612d9085828601612a2f565b9150509250929050565b6001600160a01b03858116825284166020820152600b83900b6040820152608060608201819052600090612aac908301846126c4565b600060208284031215612de257600080fd5b815161253f81612579565b634e487b7160e01b600052600160045260246000fdfea2646970667358221220f3dca0438ae1e3f42f73d413fb47328e86b7a2d5e7f4e619df87d3b17fc7a00064736f6c63430008100033",
    "linkReferences": {}
  },
  "methodIdentifiers": {
    "acceptedToken()": "451c3d80",
    "afterAgreementCreated(address,address,bytes32,bytes,bytes,bytes)": "d86ed3e5",
    "afterAgreementTerminated(address,address,bytes32,bytes,bytes,bytes)": "53c11f99",
    "afterAgreementUpdated(address,address,bytes32,bytes,bytes,bytes)": "230dbd29",
    "beforeAgreementCreated(address,address,bytes32,bytes,bytes)": "30d9c915",
    "beforeAgreementTerminated(address,address,bytes32,bytes,bytes)": "5f9e7d77",
    "beforeAgreementUpdated(address,address,bytes32,bytes,bytes)": "884d1f40",
    "beneficiary()": "38af3eed",
    "biddingPhaseDuration()": "96f6fe91",
    "biddingPhaseExtensionDuration()": "ac99adf0",
    "cfa()": "1054df8c",
    "controllerObserver()": "040e2c20",
    "currentPhaseEndTime()": "b0dd1634",
    "currentRenter()": "242f17a9",
    "depositClaimed()": "17ddfb48",
    "host()": "f437bc59",
    "initialize(address,address,address,address,address,uint96,int96,uint64,uint64,uint64,uint64)": "56898a4e",
    "isBidHigher(int96,int96)": "21e39ee8",
    "isBiddingPhase()": "83e98bc3",
    "isRentalPhase()": "38aa103c",
    "maxRentalDuration()": "7ce4026f",
    "minRentalDuration()": "34f1a8d3",
    "minimumBidFactorWad()": "3047d5fb",
    "pause()": "8456cb59",
    "paused()": "5c975abb",
    "placeBid(int96)": "1e319aee",
    "placeBid(int96,bytes)": "3ed58ed1",
    "reclaimDeposit()": "1f3ff68d",
    "reserveRate()": "58d7bf80",
    "topBidder()": "01333f06",
    "topFlowRate()": "016c2d9a",
    "transitionToBiddingPhase()": "6ecea2ec",
    "transitionToRentalPhase()": "9abb8a5f",
    "unpause()": "3f4ba83a"
  },
  "id": 108
}